{
  "contractName": "Color",
  "abi": [
    {
      "inputs": [],
      "stateMutability": "nonpayable",
      "type": "constructor"
    },
    {
      "anonymous": false,
      "inputs": [
        {
          "indexed": true,
          "internalType": "address",
          "name": "owner",
          "type": "address"
        },
        {
          "indexed": true,
          "internalType": "address",
          "name": "approved",
          "type": "address"
        },
        {
          "indexed": true,
          "internalType": "uint256",
          "name": "tokenId",
          "type": "uint256"
        }
      ],
      "name": "Approval",
      "type": "event"
    },
    {
      "anonymous": false,
      "inputs": [
        {
          "indexed": true,
          "internalType": "address",
          "name": "owner",
          "type": "address"
        },
        {
          "indexed": true,
          "internalType": "address",
          "name": "operator",
          "type": "address"
        },
        {
          "indexed": false,
          "internalType": "bool",
          "name": "approved",
          "type": "bool"
        }
      ],
      "name": "ApprovalForAll",
      "type": "event"
    },
    {
      "anonymous": false,
      "inputs": [
        {
          "indexed": true,
          "internalType": "address",
          "name": "from",
          "type": "address"
        },
        {
          "indexed": true,
          "internalType": "address",
          "name": "to",
          "type": "address"
        },
        {
          "indexed": true,
          "internalType": "uint256",
          "name": "tokenId",
          "type": "uint256"
        }
      ],
      "name": "Transfer",
      "type": "event"
    },
    {
      "inputs": [
        {
          "internalType": "address",
          "name": "to",
          "type": "address"
        },
        {
          "internalType": "uint256",
          "name": "tokenId",
          "type": "uint256"
        }
      ],
      "name": "approve",
      "outputs": [],
      "stateMutability": "nonpayable",
      "type": "function"
    },
    {
      "inputs": [
        {
          "internalType": "address",
          "name": "owner",
          "type": "address"
        }
      ],
      "name": "balanceOf",
      "outputs": [
        {
          "internalType": "uint256",
          "name": "",
          "type": "uint256"
        }
      ],
      "stateMutability": "view",
      "type": "function",
      "constant": true
    },
    {
      "inputs": [
        {
          "internalType": "uint256",
          "name": "",
          "type": "uint256"
        }
      ],
      "name": "colors",
      "outputs": [
        {
          "internalType": "string",
          "name": "",
          "type": "string"
        }
      ],
      "stateMutability": "view",
      "type": "function",
      "constant": true
    },
    {
      "inputs": [
        {
          "internalType": "uint256",
          "name": "tokenId",
          "type": "uint256"
        }
      ],
      "name": "getApproved",
      "outputs": [
        {
          "internalType": "address",
          "name": "",
          "type": "address"
        }
      ],
      "stateMutability": "view",
      "type": "function",
      "constant": true
    },
    {
      "inputs": [
        {
          "internalType": "address",
          "name": "owner",
          "type": "address"
        },
        {
          "internalType": "address",
          "name": "operator",
          "type": "address"
        }
      ],
      "name": "isApprovedForAll",
      "outputs": [
        {
          "internalType": "bool",
          "name": "",
          "type": "bool"
        }
      ],
      "stateMutability": "view",
      "type": "function",
      "constant": true
    },
    {
      "inputs": [],
      "name": "name",
      "outputs": [
        {
          "internalType": "string",
          "name": "",
          "type": "string"
        }
      ],
      "stateMutability": "view",
      "type": "function",
      "constant": true
    },
    {
      "inputs": [
        {
          "internalType": "uint256",
          "name": "tokenId",
          "type": "uint256"
        }
      ],
      "name": "ownerOf",
      "outputs": [
        {
          "internalType": "address",
          "name": "",
          "type": "address"
        }
      ],
      "stateMutability": "view",
      "type": "function",
      "constant": true
    },
    {
      "inputs": [
        {
          "internalType": "address",
          "name": "from",
          "type": "address"
        },
        {
          "internalType": "address",
          "name": "to",
          "type": "address"
        },
        {
          "internalType": "uint256",
          "name": "tokenId",
          "type": "uint256"
        }
      ],
      "name": "safeTransferFrom",
      "outputs": [],
      "stateMutability": "nonpayable",
      "type": "function"
    },
    {
      "inputs": [
        {
          "internalType": "address",
          "name": "from",
          "type": "address"
        },
        {
          "internalType": "address",
          "name": "to",
          "type": "address"
        },
        {
          "internalType": "uint256",
          "name": "tokenId",
          "type": "uint256"
        },
        {
          "internalType": "bytes",
          "name": "_data",
          "type": "bytes"
        }
      ],
      "name": "safeTransferFrom",
      "outputs": [],
      "stateMutability": "nonpayable",
      "type": "function"
    },
    {
      "inputs": [
        {
          "internalType": "address",
          "name": "operator",
          "type": "address"
        },
        {
          "internalType": "bool",
          "name": "approved",
          "type": "bool"
        }
      ],
      "name": "setApprovalForAll",
      "outputs": [],
      "stateMutability": "nonpayable",
      "type": "function"
    },
    {
      "inputs": [
        {
          "internalType": "bytes4",
          "name": "interfaceId",
          "type": "bytes4"
        }
      ],
      "name": "supportsInterface",
      "outputs": [
        {
          "internalType": "bool",
          "name": "",
          "type": "bool"
        }
      ],
      "stateMutability": "view",
      "type": "function",
      "constant": true
    },
    {
      "inputs": [],
      "name": "symbol",
      "outputs": [
        {
          "internalType": "string",
          "name": "",
          "type": "string"
        }
      ],
      "stateMutability": "view",
      "type": "function",
      "constant": true
    },
    {
      "inputs": [
        {
          "internalType": "uint256",
          "name": "tokenId",
          "type": "uint256"
        }
      ],
      "name": "tokenURI",
      "outputs": [
        {
          "internalType": "string",
          "name": "",
          "type": "string"
        }
      ],
      "stateMutability": "view",
      "type": "function",
      "constant": true
    },
    {
      "inputs": [
        {
          "internalType": "address",
          "name": "from",
          "type": "address"
        },
        {
          "internalType": "address",
          "name": "to",
          "type": "address"
        },
        {
          "internalType": "uint256",
          "name": "tokenId",
          "type": "uint256"
        }
      ],
      "name": "transferFrom",
      "outputs": [],
      "stateMutability": "nonpayable",
      "type": "function"
    },
    {
      "inputs": [
        {
          "internalType": "string",
          "name": "_color",
          "type": "string"
        }
      ],
      "name": "mint",
      "outputs": [],
      "stateMutability": "nonpayable",
      "type": "function"
    },
    {
      "inputs": [
        {
          "internalType": "address",
          "name": "owner",
          "type": "address"
        },
        {
          "internalType": "uint256",
          "name": "index",
          "type": "uint256"
        }
      ],
      "name": "tokenOfOwnerByIndex",
      "outputs": [
        {
          "internalType": "uint256",
          "name": "",
          "type": "uint256"
        }
      ],
      "stateMutability": "view",
      "type": "function",
      "constant": true
    },
    {
      "inputs": [],
      "name": "totalSupply",
      "outputs": [
        {
          "internalType": "uint256",
          "name": "",
          "type": "uint256"
        }
      ],
      "stateMutability": "view",
      "type": "function",
      "constant": true
    },
    {
      "inputs": [
        {
          "internalType": "uint256",
          "name": "index",
          "type": "uint256"
        }
      ],
      "name": "tokenByIndex",
      "outputs": [
        {
          "internalType": "uint256",
          "name": "",
          "type": "uint256"
        }
      ],
      "stateMutability": "view",
      "type": "function",
      "constant": true
    }
  ],
  "bytecode": "0x60806040523480156200001157600080fd5b506040518060400160405280600581526020017f436f6c6f720000000000000000000000000000000000000000000000000000008152506040518060400160405280600581526020017f434f4c4f52000000000000000000000000000000000000000000000000000000815250816000908051906020019062000096929190620000b8565b508060019080519060200190620000af929190620000b8565b505050620001cd565b828054620000c69062000168565b90600052602060002090601f016020900481019282620000ea576000855562000136565b82601f106200010557805160ff191683800117855562000136565b8280016001018555821562000136579182015b828111156200013557825182559160200191906001019062000118565b5b50905062000145919062000149565b5090565b5b80821115620001645760008160009055506001016200014a565b5090565b600060028204905060018216806200018157607f821691505b602082108114156200019857620001976200019e565b5b50919050565b7f4e487b7100000000000000000000000000000000000000000000000000000000600052602260045260246000fd5b612ac980620001dd6000396000f3fe608060405234801561001057600080fd5b50600436106101165760003560e01c80636352211e116100a2578063b88d4fde11610071578063b88d4fde14610305578063bd11f69d14610321578063c87b56dd14610351578063d85d3d2714610381578063e985e9c51461039d57610116565b80636352211e1461026b57806370a082311461029b57806395d89b41146102cb578063a22cb465146102e957610116565b806318160ddd116100e957806318160ddd146101b557806323b872dd146101d35780632f745c59146101ef57806342842e0e1461021f5780634f6ccce71461023b57610116565b806301ffc9a71461011b57806306fdde031461014b578063081812fc14610169578063095ea7b314610199575b600080fd5b61013560048036038101906101309190611beb565b6103cd565b6040516101429190612017565b60405180910390f35b6101536104af565b6040516101609190612032565b60405180910390f35b610183600480360381019061017e9190611c8e565b610541565b6040516101909190611fb0565b60405180910390f35b6101b360048036038101906101ae9190611bab565b6105c6565b005b6101bd6106de565b6040516101ca9190612214565b60405180910390f35b6101ed60048036038101906101e89190611a95565b6106f0565b005b61020960048036038101906102049190611bab565b610750565b6040516102169190612214565b60405180910390f35b61023960048036038101906102349190611a95565b61075c565b005b61025560048036038101906102509190611c8e565b61077c565b6040516102629190612214565b60405180910390f35b61028560048036038101906102809190611c8e565b610787565b6040516102929190611fb0565b60405180910390f35b6102b560048036038101906102b09190611a28565b610839565b6040516102c29190612214565b60405180910390f35b6102d36108f1565b6040516102e09190612032565b60405180910390f35b61030360048036038101906102fe9190611b6b565b610983565b005b61031f600480360381019061031a9190611ae8565b610b04565b005b61033b60048036038101906103369190611c8e565b610b66565b6040516103489190612032565b60405180910390f35b61036b60048036038101906103669190611c8e565b610c12565b6040516103789190612032565b60405180910390f35b61039b60048036038101906103969190611c45565b610cb9565b005b6103b760048036038101906103b29190611a55565b610d86565b6040516103c49190612017565b60405180910390f35b60007f80ac58cd000000000000000000000000000000000000000000000000000000007bffffffffffffffffffffffffffffffffffffffffffffffffffffffff1916827bffffffffffffffffffffffffffffffffffffffffffffffffffffffff1916148061049857507f5b5e139f000000000000000000000000000000000000000000000000000000007bffffffffffffffffffffffffffffffffffffffffffffffffffffffff1916827bffffffffffffffffffffffffffffffffffffffffffffffffffffffff1916145b806104a857506104a782610e1a565b5b9050919050565b6060600080546104be9061246a565b80601f01602080910402602001604051908101604052809291908181526020018280546104ea9061246a565b80156105375780601f1061050c57610100808354040283529160200191610537565b820191906000526020600020905b81548152906001019060200180831161051a57829003601f168201915b5050505050905090565b600061054c82610e84565b61058b576040517f08c379a000000000000000000000000000000000000000000000000000000000815260040161058290612174565b60405180910390fd5b6004600083815260200190815260200160002060009054906101000a900473ffffffffffffffffffffffffffffffffffffffff169050919050565b60006105d182610787565b90508073ffffffffffffffffffffffffffffffffffffffff168373ffffffffffffffffffffffffffffffffffffffff161415610642576040517f08c379a0000000000000000000000000000000000000000000000000000000008152600401610639906121d4565b60405180910390fd5b8073ffffffffffffffffffffffffffffffffffffffff16610661610ef0565b73ffffffffffffffffffffffffffffffffffffffff161480610690575061068f8161068a610ef0565b610d86565b5b6106cf576040517f08c379a00000000000000000000000000000000000000000000000000000000081526004016106c6906120f4565b60405180910390fd5b6106d98383610ef8565b505050565b60008060068054905090508091505090565b6107016106fb610ef0565b82610fb1565b610740576040517f08c379a0000000000000000000000000000000000000000000000000000000008152600401610737906121f4565b60405180910390fd5b61074b83838361108f565b505050565b60006003905092915050565b61077783838360405180602001604052806000815250610b04565b505050565b600060059050919050565b6000806002600084815260200190815260200160002060009054906101000a900473ffffffffffffffffffffffffffffffffffffffff169050600073ffffffffffffffffffffffffffffffffffffffff168173ffffffffffffffffffffffffffffffffffffffff161415610830576040517f08c379a000000000000000000000000000000000000000000000000000000000815260040161082790612134565b60405180910390fd5b80915050919050565b60008073ffffffffffffffffffffffffffffffffffffffff168273ffffffffffffffffffffffffffffffffffffffff1614156108aa576040517f08c379a00000000000000000000000000000000000000000000000000000000081526004016108a190612114565b60405180910390fd5b600360008373ffffffffffffffffffffffffffffffffffffffff1673ffffffffffffffffffffffffffffffffffffffff168152602001908152602001600020549050919050565b6060600180546109009061246a565b80601f016020809104026020016040519081016040528092919081815260200182805461092c9061246a565b80156109795780601f1061094e57610100808354040283529160200191610979565b820191906000526020600020905b81548152906001019060200180831161095c57829003601f168201915b5050505050905090565b61098b610ef0565b73ffffffffffffffffffffffffffffffffffffffff168273ffffffffffffffffffffffffffffffffffffffff1614156109f9576040517f08c379a00000000000000000000000000000000000000000000000000000000081526004016109f0906120b4565b60405180910390fd5b8060056000610a06610ef0565b73ffffffffffffffffffffffffffffffffffffffff1673ffffffffffffffffffffffffffffffffffffffff16815260200190815260200160002060008473ffffffffffffffffffffffffffffffffffffffff1673ffffffffffffffffffffffffffffffffffffffff16815260200190815260200160002060006101000a81548160ff0219169083151502179055508173ffffffffffffffffffffffffffffffffffffffff16610ab3610ef0565b73ffffffffffffffffffffffffffffffffffffffff167f17307eab39ab6107e8899845ad3d59bd9653f200f220920489ca2b5937696c3183604051610af89190612017565b60405180910390a35050565b610b15610b0f610ef0565b83610fb1565b610b54576040517f08c379a0000000000000000000000000000000000000000000000000000000008152600401610b4b906121f4565b60405180910390fd5b610b60848484846112eb565b50505050565b60068181548110610b7657600080fd5b906000526020600020016000915090508054610b919061246a565b80601f0160208091040260200160405190810160405280929190818152602001828054610bbd9061246a565b8015610c0a5780601f10610bdf57610100808354040283529160200191610c0a565b820191906000526020600020905b815481529060010190602001808311610bed57829003601f168201915b505050505081565b6060610c1d82610e84565b610c5c576040517f08c379a0000000000000000000000000000000000000000000000000000000008152600401610c53906121b4565b60405180910390fd5b6000610c66611347565b90506000815111610c865760405180602001604052806000815250610cb1565b80610c908461135e565b604051602001610ca1929190611f8c565b6040516020818303038152906040525b915050919050565b600781604051610cc99190611f75565b908152602001604051809103902060009054906101000a900460ff1615610cef57600080fd5b600681908060018154018082558091505060019003906000526020600020016000909190919091509080519060200190610d2a92919061183c565b5060006001600680549050610d3f9190612380565b9050610d4b33826114bf565b6001600783604051610d5d9190611f75565b908152602001604051809103902060006101000a81548160ff0219169083151502179055505050565b6000600560008473ffffffffffffffffffffffffffffffffffffffff1673ffffffffffffffffffffffffffffffffffffffff16815260200190815260200160002060008373ffffffffffffffffffffffffffffffffffffffff1673ffffffffffffffffffffffffffffffffffffffff16815260200190815260200160002060009054906101000a900460ff16905092915050565b60007f01ffc9a7000000000000000000000000000000000000000000000000000000007bffffffffffffffffffffffffffffffffffffffffffffffffffffffff1916827bffffffffffffffffffffffffffffffffffffffffffffffffffffffff1916149050919050565b60008073ffffffffffffffffffffffffffffffffffffffff166002600084815260200190815260200160002060009054906101000a900473ffffffffffffffffffffffffffffffffffffffff1673ffffffffffffffffffffffffffffffffffffffff1614159050919050565b600033905090565b816004600083815260200190815260200160002060006101000a81548173ffffffffffffffffffffffffffffffffffffffff021916908373ffffffffffffffffffffffffffffffffffffffff160217905550808273ffffffffffffffffffffffffffffffffffffffff16610f6b83610787565b73ffffffffffffffffffffffffffffffffffffffff167f8c5be1e5ebec7d5bd14f71427d1e84f3dd0314c0f7b2291e5b200ac8c7c3b92560405160405180910390a45050565b6000610fbc82610e84565b610ffb576040517f08c379a0000000000000000000000000000000000000000000000000000000008152600401610ff2906120d4565b60405180910390fd5b600061100683610787565b90508073ffffffffffffffffffffffffffffffffffffffff168473ffffffffffffffffffffffffffffffffffffffff16148061107557508373ffffffffffffffffffffffffffffffffffffffff1661105d84610541565b73ffffffffffffffffffffffffffffffffffffffff16145b8061108657506110858185610d86565b5b91505092915050565b8273ffffffffffffffffffffffffffffffffffffffff166110af82610787565b73ffffffffffffffffffffffffffffffffffffffff1614611105576040517f08c379a00000000000000000000000000000000000000000000000000000000081526004016110fc90612194565b60405180910390fd5b600073ffffffffffffffffffffffffffffffffffffffff168273ffffffffffffffffffffffffffffffffffffffff161415611175576040517f08c379a000000000000000000000000000000000000000000000000000000000815260040161116c90612094565b60405180910390fd5b61118083838361168d565b61118b600082610ef8565b6001600360008573ffffffffffffffffffffffffffffffffffffffff1673ffffffffffffffffffffffffffffffffffffffff16815260200190815260200160002060008282546111db9190612380565b925050819055506001600360008473ffffffffffffffffffffffffffffffffffffffff1673ffffffffffffffffffffffffffffffffffffffff168152602001908152602001600020600082825461123291906122f9565b92505081905550816002600083815260200190815260200160002060006101000a81548173ffffffffffffffffffffffffffffffffffffffff021916908373ffffffffffffffffffffffffffffffffffffffff160217905550808273ffffffffffffffffffffffffffffffffffffffff168473ffffffffffffffffffffffffffffffffffffffff167fddf252ad1be2c89b69c2b068fc378daa952ba7f163c4a11628f55a4df523b3ef60405160405180910390a4505050565b6112f684848461108f565b61130284848484611692565b611341576040517f08c379a000000000000000000000000000000000000000000000000000000000815260040161133890612054565b60405180910390fd5b50505050565b606060405180602001604052806000815250905090565b606060008214156113a6576040518060400160405280600181526020017f300000000000000000000000000000000000000000000000000000000000000081525090506114ba565b600082905060005b600082146113d85780806113c1906124cd565b915050600a826113d1919061234f565b91506113ae565b60008167ffffffffffffffff8111156113f4576113f3612603565b5b6040519080825280601f01601f1916602001820160405280156114265781602001600182028036833780820191505090505b5090505b600085146114b35760018261143f9190612380565b9150600a8561144e9190612516565b603061145a91906122f9565b60f81b8183815181106114705761146f6125d4565b5b60200101907effffffffffffffffffffffffffffffffffffffffffffffffffffffffffffff1916908160001a905350600a856114ac919061234f565b945061142a565b8093505050505b919050565b600073ffffffffffffffffffffffffffffffffffffffff168273ffffffffffffffffffffffffffffffffffffffff16141561152f576040517f08c379a000000000000000000000000000000000000000000000000000000000815260040161152690612154565b60405180910390fd5b61153881610e84565b15611578576040517f08c379a000000000000000000000000000000000000000000000000000000000815260040161156f90612074565b60405180910390fd5b6115846000838361168d565b6001600360008473ffffffffffffffffffffffffffffffffffffffff1673ffffffffffffffffffffffffffffffffffffffff16815260200190815260200160002060008282546115d491906122f9565b92505081905550816002600083815260200190815260200160002060006101000a81548173ffffffffffffffffffffffffffffffffffffffff021916908373ffffffffffffffffffffffffffffffffffffffff160217905550808273ffffffffffffffffffffffffffffffffffffffff16600073ffffffffffffffffffffffffffffffffffffffff167fddf252ad1be2c89b69c2b068fc378daa952ba7f163c4a11628f55a4df523b3ef60405160405180910390a45050565b505050565b60006116b38473ffffffffffffffffffffffffffffffffffffffff16611829565b1561181c578373ffffffffffffffffffffffffffffffffffffffff1663150b7a026116dc610ef0565b8786866040518563ffffffff1660e01b81526004016116fe9493929190611fcb565b602060405180830381600087803b15801561171857600080fd5b505af192505050801561174957506040513d601f19601f820116820180604052508101906117469190611c18565b60015b6117cc573d8060008114611779576040519150601f19603f3d011682016040523d82523d6000602084013e61177e565b606091505b506000815114156117c4576040517f08c379a00000000000000000000000000000000000000000000000000000000081526004016117bb90612054565b60405180910390fd5b805181602001fd5b63150b7a0260e01b7bffffffffffffffffffffffffffffffffffffffffffffffffffffffff1916817bffffffffffffffffffffffffffffffffffffffffffffffffffffffff191614915050611821565b600190505b949350505050565b600080823b905060008111915050919050565b8280546118489061246a565b90600052602060002090601f01602090048101928261186a57600085556118b1565b82601f1061188357805160ff19168380011785556118b1565b828001600101855582156118b1579182015b828111156118b0578251825591602001919060010190611895565b5b5090506118be91906118c2565b5090565b5b808211156118db5760008160009055506001016118c3565b5090565b60006118f26118ed84612254565b61222f565b90508281526020810184848401111561190e5761190d612637565b5b611919848285612428565b509392505050565b600061193461192f84612285565b61222f565b9050828152602081018484840111156119505761194f612637565b5b61195b848285612428565b509392505050565b60008135905061197281612a37565b92915050565b60008135905061198781612a4e565b92915050565b60008135905061199c81612a65565b92915050565b6000815190506119b181612a65565b92915050565b600082601f8301126119cc576119cb612632565b5b81356119dc8482602086016118df565b91505092915050565b600082601f8301126119fa576119f9612632565b5b8135611a0a848260208601611921565b91505092915050565b600081359050611a2281612a7c565b92915050565b600060208284031215611a3e57611a3d612641565b5b6000611a4c84828501611963565b91505092915050565b60008060408385031215611a6c57611a6b612641565b5b6000611a7a85828601611963565b9250506020611a8b85828601611963565b9150509250929050565b600080600060608486031215611aae57611aad612641565b5b6000611abc86828701611963565b9350506020611acd86828701611963565b9250506040611ade86828701611a13565b9150509250925092565b60008060008060808587031215611b0257611b01612641565b5b6000611b1087828801611963565b9450506020611b2187828801611963565b9350506040611b3287828801611a13565b925050606085013567ffffffffffffffff811115611b5357611b5261263c565b5b611b5f878288016119b7565b91505092959194509250565b60008060408385031215611b8257611b81612641565b5b6000611b9085828601611963565b9250506020611ba185828601611978565b9150509250929050565b60008060408385031215611bc257611bc1612641565b5b6000611bd085828601611963565b9250506020611be185828601611a13565b9150509250929050565b600060208284031215611c0157611c00612641565b5b6000611c0f8482850161198d565b91505092915050565b600060208284031215611c2e57611c2d612641565b5b6000611c3c848285016119a2565b91505092915050565b600060208284031215611c5b57611c5a612641565b5b600082013567ffffffffffffffff811115611c7957611c7861263c565b5b611c85848285016119e5565b91505092915050565b600060208284031215611ca457611ca3612641565b5b6000611cb284828501611a13565b91505092915050565b611cc4816123b4565b82525050565b611cd3816123c6565b82525050565b6000611ce4826122b6565b611cee81856122cc565b9350611cfe818560208601612437565b611d0781612646565b840191505092915050565b6000611d1d826122c1565b611d2781856122dd565b9350611d37818560208601612437565b611d4081612646565b840191505092915050565b6000611d56826122c1565b611d6081856122ee565b9350611d70818560208601612437565b80840191505092915050565b6000611d896032836122dd565b9150611d9482612657565b604082019050919050565b6000611dac601c836122dd565b9150611db7826126a6565b602082019050919050565b6000611dcf6024836122dd565b9150611dda826126cf565b604082019050919050565b6000611df26019836122dd565b9150611dfd8261271e565b602082019050919050565b6000611e15602c836122dd565b9150611e2082612747565b604082019050919050565b6000611e386038836122dd565b9150611e4382612796565b604082019050919050565b6000611e5b602a836122dd565b9150611e66826127e5565b604082019050919050565b6000611e7e6029836122dd565b9150611e8982612834565b604082019050919050565b6000611ea16020836122dd565b9150611eac82612883565b602082019050919050565b6000611ec4602c836122dd565b9150611ecf826128ac565b604082019050919050565b6000611ee76029836122dd565b9150611ef2826128fb565b604082019050919050565b6000611f0a602f836122dd565b9150611f158261294a565b604082019050919050565b6000611f2d6021836122dd565b9150611f3882612999565b604082019050919050565b6000611f506031836122dd565b9150611f5b826129e8565b604082019050919050565b611f6f8161241e565b82525050565b6000611f818284611d4b565b915081905092915050565b6000611f988285611d4b565b9150611fa48284611d4b565b91508190509392505050565b6000602082019050611fc56000830184611cbb565b92915050565b6000608082019050611fe06000830187611cbb565b611fed6020830186611cbb565b611ffa6040830185611f66565b818103606083015261200c8184611cd9565b905095945050505050565b600060208201905061202c6000830184611cca565b92915050565b6000602082019050818103600083015261204c8184611d12565b905092915050565b6000602082019050818103600083015261206d81611d7c565b9050919050565b6000602082019050818103600083015261208d81611d9f565b9050919050565b600060208201905081810360008301526120ad81611dc2565b9050919050565b600060208201905081810360008301526120cd81611de5565b9050919050565b600060208201905081810360008301526120ed81611e08565b9050919050565b6000602082019050818103600083015261210d81611e2b565b9050919050565b6000602082019050818103600083015261212d81611e4e565b9050919050565b6000602082019050818103600083015261214d81611e71565b9050919050565b6000602082019050818103600083015261216d81611e94565b9050919050565b6000602082019050818103600083015261218d81611eb7565b9050919050565b600060208201905081810360008301526121ad81611eda565b9050919050565b600060208201905081810360008301526121cd81611efd565b9050919050565b600060208201905081810360008301526121ed81611f20565b9050919050565b6000602082019050818103600083015261220d81611f43565b9050919050565b60006020820190506122296000830184611f66565b92915050565b600061223961224a565b9050612245828261249c565b919050565b6000604051905090565b600067ffffffffffffffff82111561226f5761226e612603565b5b61227882612646565b9050602081019050919050565b600067ffffffffffffffff8211156122a05761229f612603565b5b6122a982612646565b9050602081019050919050565b600081519050919050565b600081519050919050565b600082825260208201905092915050565b600082825260208201905092915050565b600081905092915050565b60006123048261241e565b915061230f8361241e565b9250827fffffffffffffffffffffffffffffffffffffffffffffffffffffffffffffffff0382111561234457612343612547565b5b828201905092915050565b600061235a8261241e565b91506123658361241e565b92508261237557612374612576565b5b828204905092915050565b600061238b8261241e565b91506123968361241e565b9250828210156123a9576123a8612547565b5b828203905092915050565b60006123bf826123fe565b9050919050565b60008115159050919050565b60007fffffffff0000000000000000000000000000000000000000000000000000000082169050919050565b600073ffffffffffffffffffffffffffffffffffffffff82169050919050565b6000819050919050565b82818337600083830152505050565b60005b8381101561245557808201518184015260208101905061243a565b83811115612464576000848401525b50505050565b6000600282049050600182168061248257607f821691505b60208210811415612496576124956125a5565b5b50919050565b6124a582612646565b810181811067ffffffffffffffff821117156124c4576124c3612603565b5b80604052505050565b60006124d88261241e565b91507fffffffffffffffffffffffffffffffffffffffffffffffffffffffffffffffff82141561250b5761250a612547565b5b600182019050919050565b60006125218261241e565b915061252c8361241e565b92508261253c5761253b612576565b5b828206905092915050565b7f4e487b7100000000000000000000000000000000000000000000000000000000600052601160045260246000fd5b7f4e487b7100000000000000000000000000000000000000000000000000000000600052601260045260246000fd5b7f4e487b7100000000000000000000000000000000000000000000000000000000600052602260045260246000fd5b7f4e487b7100000000000000000000000000000000000000000000000000000000600052603260045260246000fd5b7f4e487b7100000000000000000000000000000000000000000000000000000000600052604160045260246000fd5b600080fd5b600080fd5b600080fd5b600080fd5b6000601f19601f8301169050919050565b7f4552433732313a207472616e7366657220746f206e6f6e20455243373231526560008201527f63656976657220696d706c656d656e7465720000000000000000000000000000602082015250565b7f4552433732313a20746f6b656e20616c7265616479206d696e74656400000000600082015250565b7f4552433732313a207472616e7366657220746f20746865207a65726f2061646460008201527f7265737300000000000000000000000000000000000000000000000000000000602082015250565b7f4552433732313a20617070726f766520746f2063616c6c657200000000000000600082015250565b7f4552433732313a206f70657261746f7220717565727920666f72206e6f6e657860008201527f697374656e7420746f6b656e0000000000000000000000000000000000000000602082015250565b7f4552433732313a20617070726f76652063616c6c6572206973206e6f74206f7760008201527f6e6572206e6f7220617070726f76656420666f7220616c6c0000000000000000602082015250565b7f4552433732313a2062616c616e636520717565727920666f7220746865207a6560008201527f726f206164647265737300000000000000000000000000000000000000000000602082015250565b7f4552433732313a206f776e657220717565727920666f72206e6f6e657869737460008201527f656e7420746f6b656e0000000000000000000000000000000000000000000000602082015250565b7f4552433732313a206d696e7420746f20746865207a65726f2061646472657373600082015250565b7f4552433732313a20617070726f76656420717565727920666f72206e6f6e657860008201527f697374656e7420746f6b656e0000000000000000000000000000000000000000602082015250565b7f4552433732313a207472616e73666572206f6620746f6b656e2074686174206960008201527f73206e6f74206f776e0000000000000000000000000000000000000000000000602082015250565b7f4552433732314d657461646174613a2055524920717565727920666f72206e6f60008201527f6e6578697374656e7420746f6b656e0000000000000000000000000000000000602082015250565b7f4552433732313a20617070726f76616c20746f2063757272656e74206f776e6560008201527f7200000000000000000000000000000000000000000000000000000000000000602082015250565b7f4552433732313a207472616e736665722063616c6c6572206973206e6f74206f60008201527f776e6572206e6f7220617070726f766564000000000000000000000000000000602082015250565b612a40816123b4565b8114612a4b57600080fd5b50565b612a57816123c6565b8114612a6257600080fd5b50565b612a6e816123d2565b8114612a7957600080fd5b50565b612a858161241e565b8114612a9057600080fd5b5056fea26469706673582212209d62d5caafab34f019ae5ba84e96e3e3eb3a5ad709894559ab399324842ffc7664736f6c63430008070033",
  "immutableReferences": {},
  "source": "pragma solidity 0.8.7;\r\n\r\nimport \"@openzeppelin/contracts/token/ERC721/ERC721.sol\"; //import base functionality\r\nimport \"@openzeppelin/contracts/token/ERC721/extensions/ERC721Enumerable.sol\"; //import totalsupply()\r\n\r\ncontract Color is ERC721, IERC721Enumerable { // We must extends IERC721Enumerable \r\n    string[] public colors;\r\n    mapping(string => bool) _colorExists;\r\n\r\n    constructor() ERC721(\"Color\", \"COLOR\") {}\r\n\r\n    function mint(string memory _color) public {\r\n      require(!_colorExists[_color]);\r\n        colors.push(_color);\r\n        uint256 _id = colors.length-1;\r\n        _mint(msg.sender,_id);\r\n        _colorExists[_color] = true;\r\n    }\r\n    \r\n\r\n    // And must override below three functions\r\n\r\n    function tokenOfOwnerByIndex(address owner, uint256 index) public view override returns (uint256) {\r\n        // You need update this logic.\r\n      // ...\r\n      \r\n      return 3;\r\n       \r\n    }\r\n\r\n    function totalSupply() external  view override returns (uint256) {\r\n      // You need update this logic.\r\n      // ...\r\n      uint256 length = colors.length;\r\n      return length;\r\n    }\r\n\r\n    function tokenByIndex(uint256 index) external view  override returns (uint256) {\r\n      // You need update this logic.\r\n      // ...\r\n      return 5;\r\n    }\r\n}",
  "sourcePath": "C:\\Users\\luthe\\Desktop\\starter_kit\\src\\contracts\\color.sol",
  "compiler": {
    "name": "solc",
    "version": "0.8.7+commit.e28d00a7.Emscripten.clang"
  },
  "schemaVersion": "3.4.2",
  "updatedAt": "2021-08-17T18:26:27.084Z",
  "networkType": "ethereum",
  "devdoc": {
    "kind": "dev",
    "methods": {
      "approve(address,uint256)": {
        "details": "See {IERC721-approve}."
      },
      "balanceOf(address)": {
        "details": "See {IERC721-balanceOf}."
      },
      "getApproved(uint256)": {
        "details": "See {IERC721-getApproved}."
      },
      "isApprovedForAll(address,address)": {
        "details": "See {IERC721-isApprovedForAll}."
      },
      "name()": {
        "details": "See {IERC721Metadata-name}."
      },
      "ownerOf(uint256)": {
        "details": "See {IERC721-ownerOf}."
      },
      "safeTransferFrom(address,address,uint256)": {
        "details": "See {IERC721-safeTransferFrom}."
      },
      "safeTransferFrom(address,address,uint256,bytes)": {
        "details": "See {IERC721-safeTransferFrom}."
      },
      "setApprovalForAll(address,bool)": {
        "details": "See {IERC721-setApprovalForAll}."
      },
      "supportsInterface(bytes4)": {
        "details": "See {IERC165-supportsInterface}."
      },
      "symbol()": {
        "details": "See {IERC721Metadata-symbol}."
      },
      "tokenByIndex(uint256)": {
        "details": "Returns a token ID at a given `index` of all the tokens stored by the contract. Use along with {totalSupply} to enumerate all tokens."
      },
      "tokenOfOwnerByIndex(address,uint256)": {
        "details": "Returns a token ID owned by `owner` at a given `index` of its token list. Use along with {balanceOf} to enumerate all of ``owner``'s tokens."
      },
      "tokenURI(uint256)": {
        "details": "See {IERC721Metadata-tokenURI}."
      },
      "totalSupply()": {
        "details": "Returns the total amount of tokens stored by the contract."
      },
      "transferFrom(address,address,uint256)": {
        "details": "See {IERC721-transferFrom}."
      }
    },
    "version": 1
  },
  "userdoc": {
    "kind": "user",
    "methods": {},
    "version": 1
  }
}